:1000000012C021C020C01FC01EC01DC01CC01BC00C
:100010001AC019C018C017C016C015C014C013C02C
:1000200012C011C010C011241FBECFE5D4E0DEBF46
:10003000CDBF20E0A0E6B0E001C01D92A136B2071E
:10004000E1F702D080C0DCCF87B3866087BB85B381
:100050008C6385BB8FB5826A8FBD8EB589618EBD7D
:1000600088EE93E097BD86BD84EF91E09BBD8ABD8D
:1000700099BD88BD789431E020EA9A9909C08091B1
:100080006000811103C03093600002C010926000D4
:100090009D9921C08FE19EE40197F1F700C0000017
:1000A0009D9919C08091600081110BC08AB59BB5E4
:1000B000883E934080F48AB59BB50A969BBD8ABD65
:1000C0000AC088B599B5883E934028F488B599B59B
:1000D0000A9699BD88BD9C991FC08FE19EE4019747
:1000E000F1F700C000009C9917C080916000811159
:1000F0000AC08AB59BB5892B79F08AB59BB50A975A
:100100009BBD8ABD09C088B599B5892B29F088B5F2
:1001100099B50A9799BD88BD9B99AFCF8FE19EE4B1
:100120000197F1F700C000009B99A7CF8FB58227F8
:100130008FBD9FEB44ED81E0915040408040E1F75E
:0A01400000C000009ACFF894FFCF32
:00000001FF
