:100000008FC0A9C0A8C0A7C0A6C0A5C0A4C0A3C0D7
:10001000A2C0A1C0A0C09FC09EC09DC09CC09BC0EC
:100020009AC099C098C000407A10F35A00A0724E4E
:1000300018090010A5D4E80000E87648170000E48D
:100040000B54020000CA9A3B000000E1F5050000D5
:1000500080969800000040420F000000A08601003A
:100060000000102700000000E8030000000064000A
:10007000000000000A000000000001000000000075
:100080002C76D888DC674F0823DFC1DFAE59E1B199
:10009000B796E5E3E453C63AE651997696E8E6C2A8
:1000A0008426EB898C9B62ED407C6FFCEFBC9C9FAF
:1000B00040F2BAA56FA5F490055A2AF75C936B6CD1
:1000C000F9676DC11BFCE0E40D47FEF520E6B500C5
:1000D000D0ED902E0300943577050080841E080033
:1000E00000204E0A000000C80C333333330F986EE3
:1000F00012831141EF8D2114893BE65516CFFEE6A0
:10010000DB18D1844B381BF77C1D901DA4BBE42465
:10011000203284725E228100C9F124ECA1E53D27E2
:1001200011241FBECFE5D4E0DEBFCDBF11E0A0E6B5
:10013000B0E0ECE4FBE002C005900D92A237B107FD
:10014000D9F711E0A2E7B1E001C01D92A237B107D3
:10015000E1F723D2F9C454CF80E187BB80E48DB9A5
:100160000895779BFECF8FB10895939A22B3982F6D
:10017000907F2F70922B92BB93980000939A92B32A
:100180008295807F9F70892B82BB93988AE68A959F
:10019000F1F700C00895939A929881E0E6DF939872
:1001A000929A8FEC9CE00197F1F700C0000008954F
:1001B0008CEF81BB12BA8FE399E1A1E081509040AE
:1001C000A040E1F700C00000939A82B3806382BB35
:1001D0009398A7E0B0E21197F1F700C00000939A5E
:1001E00082B3806382BB939887EC90E00197F1F72C
:1001F00000C00000939A82B3806382BB9398A7ECFF
:10020000B0E01197F1F700C00000939A949893988A
:1002100080E2ABDF86E0A9DF8CE0A7DF929ABBDF4C
:100220000895EF92FF921F93CF93DF930F92CDB774
:10023000DEB7182FE82EF92E06C0F70181917F0155
:10024000698393DF69818E2D811B8617B0F30F9030
:10025000DF91CF911F91FF90EF900895CF92DF92A1
:10026000EF92FF92CF93DF93CDB7DEB728970FB60B
:10027000F894DEBF0FBECDBF6B017C0183E08983A4
:10028000D701C6018827B7FD83959927AA27BB27E1
:10029000282F8A83C114D104E104F10419F482E007
:1002A000898334C08EE190E09C838B83222389F084
:1002B00080E0C81680E0D80680E0E80680E8F8060E
:1002C00049F1F094E094D094C094C11CD11CE11C7D
:1002D000F11CCD82DE82EF82F886C701B60133D0F1
:1002E00001971816190694F4082E04C0CC0CDD1CD6
:1002F000EE1CFF1C0A94D2F7CD82DE82EF82F886D4
:100300002EE130E0281B390B3C832B83CE01019674
:100310006DD004C060E070E080E09FEC382F292FA2
:10032000862F972FA32FB22FBC01CD0128960FB691
:10033000F894DEBF0FBECDBFDF91CF91FF90EF905D
:10034000DF90CF900895CF92DF92EF92FF920F93BC
:100350001F938B019C01003080E0180781E0280783
:1003600080E0380750F40F3F11052105310509F0F1
:1003700088F480E090E0DC0116C00030E0E01E0769
:10038000E0E02E07E1E03E0750F480E190E0A0E0DD
:10039000B0E009C088E090E0A0E0B0E004C088E1EF
:1003A00090E0A0E0B0E040E250E060E070E0481B88
:1003B000590B6A0B7B0B6801790104C0F694E79432
:1003C000D794C7948A95D2F7D701C6018E589F4F0C
:1003D000FC018081481B510961097109CA011F9103
:1003E0000F91FF90EF90DF90CF900895CF92DF9222
:1003F000EF92FF920F931F93DC0114964D915D9144
:100400006D917C9117971196EC9111978C91823098
:1004100020F460618FEF90E0A5C0843009F49DC0A6
:10042000823009F494C0411551056105710509F444
:1004300091C012968D919C9113972FEF823892075D
:100440000CF059C022E83FEF281B390B2A31310547
:1004500064F56A017B01022E04C0F694E794D794F8
:10046000C7940A94D2F781E090E0A0E0B0E004C025
:10047000880F991FAA1FBB1F2A95D2F70197A109C0
:10048000B10984239523A623B72341E050E060E01F
:1004900070E00097A105B10519F440E050E0BA0101
:1004A0004C295D296E297F2903C040E050E0BA0144
:1004B000DB01CA018F779070A070B0708034910515
:1004C000A105B10539F447FF09C0405C5F4F6F4F8C
:1004D0007F4F04C0415C5F4F6F4F7F4F81E090E0E2
:1004E000403020E0520720E0620720E4720738F530
:1004F00080E090E024C0803891057CF58A019B0162
:100500000F7710702070307000341105210531050F
:1005100039F447FF09C0405C5F4F6F4F7F4F04C005
:10052000415C5F4F6F4F7F4F77FD03C081589F4FF6
:1005300006C0769567955795479580589F4F97E0E9
:1005400076956795579547959A95D1F70BC080E0BA
:1005500090E005C080E090E005C08FEF90E040E0C3
:1005600050E0BA01982F979599279795A62FAF77C6
:10057000E795EE27E79586953A2F392B282F2E2BD6
:10058000842F952FA32FB22FBC01CD011F910F9166
:10059000FF90EF90DF90CF900895CF93DF93CDB78A
:1005A000DEB768970FB6F894DEBF0FBECDBF00DE92
:1005B000D3DDDE015196E0E6F0E088E001900D9297
:1005C0008150E1F7CE01419668E02BDEDE011996FD
:1005D000E9E6F0E088E001900D928150E1F7DE015C
:1005E0001196E9E6F0E088E001900D928150E1F784
:1005F000B8DD182F929880ECB8DD929A8AE68A9539
:10060000F1F700C0CE01099668E00BDE929880EC0D
:10061000ACDD929A8AE68A95F1F700C0612F7727C0
:1006200067FD7095872F972F19DE40E028E08E0137
:100630000F5F1F4F04D0C80168E0F3DDD9CFEF9200
:100640000F931F93CF93322FC02F47FF02C0A4E117
:1006500001C0A4E0E42FFF27E7FDF095F7FF03C0FA
:10066000F095E195FF4F4C2F512F2E2F032FEA2E9F
:1006700007D08C2F912FCF911F910F91EF9008955C
:10068000A9E0B0E0E5E4F3E02CC26A01122FF02EFD
:100690002BE3201718F0B02EB39402C03CE3B32E26
:1006A000AE014F5F5F4F27E00B2D3FD1BC01A98109
:1006B000B0E0CD01897090708130910531F0E1FC9E
:1006C00006C0E0FE06C040E205C04DE203C04BE2BA
:1006D00001C040E0A3FF36C0442311F084E001C014
:1006E00083E0811710F4181B01C010E0E4FC0BC07C
:1006F000912FF60180E202C0819391509923E1F796
:10070000C10ED11C10E0442319F0F60141936F0192
:10071000E2FE05C08EE4F601808391E404C08EE61B
:10072000F601808391E69183828383E090E0C80E96
:10073000D91E812FF60190E202C091938150882347
:10074000E1F73AC0A2FF3FC0442311F084E001C0AA
:1007500083E0811710F4181B01C010E0E4FC0BC00B
:10076000912FF60180E202C0819391509923E1F725
:10077000C10ED11C10E0442319F0F60141936F0122
:10078000E2FE07C089E4F60180838EE4818386E47B
:1007900006C089E6F60180838EE6818386E6828341
:1007A00083E090E0C80ED91E812FF60190E202C0CE
:1007B000919381508823E1F7C10ED11CF60110827C
:1007C0008EEF9FEFAFC021E030E0442311F420E032
:1007D00030E0161617061CF4CB01019602C081E02A
:1007E00090E0280F391FFF2021F08F2D90E0019617
:1007F00002C080E090E0820F931F212F30E082172B
:1008000093071CF4512F581B01C050E08E2D90E02F
:100810009C0120713070E4FC0DC0E3FC0BC0852FFF
:10082000F60190E202C0919381508823E1F7C50E52
:10083000D11C50E0442319F0F60141936F012115BA
:10084000310559F4852FF60190E302C09193815050
:100850008823E1F7C50ED11C50E0B60E4A8120E195
:10086000622E712C6A227B22A4FF03C0413309F45B
:10087000BA941B142CF48B2D893018F088E001C039
:1008800081E09B0177FF02C020E030E0A0E0B0E013
:100890009EE2E92E4B01881A9108CB01821B930B33
:1008A0008E010F5F1F4F080F191F8F2D90E0AA2494
:1008B000BB24A81AB90AFFEF2F3F3F0719F4F6012E
:1008C000E1926F016217730744F0821693062CF4CD
:1008D000F801EA0FFB1F818101C080E32150304005
:1008E00011962A153B0524F0F60181936F01E3CFA1
:1008F0002617370741F4463328F4453321F46114B1
:10090000710409F481E3F6018193852FDF0190E200
:1009100002C09D9381508823E1F7E50FF11D1082FD
:1009200080E090E02996EEE0F8C0283008F027E05B
:100930003327DA01990F311D87FD9160009661051B
:10094000710539F432602E5F3D9330E32A95E1F76B
:1009500008959F3F30F080387105610509F03C5FD4
:100960003C5F3D93913008F08068911DDF93CF93F9
:100970001F930F93FF92EF92192F987F9695E92F6F
:1009800096959695E90FFF27E058FF4F9927332753
:10099000EE24FF24A701E70105900894079428F4AA
:1009A000360FE71EF81E491F511D660F771F881F5F
:1009B000991F0694A1F70590079428F4E70EF81EF6
:1009C000491F561FC11D770F881F991F661F069468
:1009D000A1F70590079428F4F80E491F561FC71F6A
:1009E000D11D880F991F661F771F0694A1F70590E8
:1009F000079420F4490F561FC71FD81F990F661F71
:100A0000771F881F0694A9F784911095177041F0FD
:100A1000D695C79557954795F794E7941A95C1F7DA
:100A2000E6E2F0E068941590159135916591959105
:100A300005907FE27395E118F10A430B560BC90B41
:100A4000D009C0F7E10CF11E431F561FC91FD01D6E
:100A50007EF4703311F48A95E6CFE894015030F0BB
:100A6000080F0AF40027021708F4202F2395022FFD
:100A70007A3328F079E37D932A95E9F710C07D93C6
:100A80002A9589F606949795679537951795179443
:100A9000E118F10A430B560BC90BD00998F02395C6
:100AA0007E9173957A3308F070E37C932013B8F746
:100AB0007E9170617D9330F0839571E37D9370E357
:100AC0002A95E1F71124EF90FF900F911F91CF919C
:100AD000DF91992787FD909508952F923F924F922D
:100AE0005F926F927F928F929F92AF92BF92CF92BE
:100AF000DF92EF92FF920F931F93CF93DF93CDB7C7
:100B0000DEB7CA1BDB0B0FB6F894DEBF0FBECDBF3E
:100B100009942A88398848885F846E847D848C840F
:100B20009B84AA84B984C884DF80EE80FD800C8118
:100B30001B81AA81B981CE0FD11D0FB6F894DEBFFB
:0C0B40000FBECDBFED010895F894FFCF6B
:100B4C00515745525459554900202020202020202F
:100B5C002000000102020303030304040404040440
:100B6C00040405050505050505050505050505052B
:100B7C00050506060606060606060606060606060B
:100B8C0006060606060606060606060606060606F9
:100B9C0006060707070707070707070707070707DB
:100BAC0007070707070707070707070707070707C9
:100BBC0007070707070707070707070707070707B9
:100BCC0007070707070707070707070707070707A9
:100BDC00070708080808080808080808080808088B
:100BEC000808080808080808080808080808080879
:100BFC000808080808080808080808080808080869
:100C0C000808080808080808080808080808080858
:100C1C000808080808080808080808080808080848
:100C2C000808080808080808080808080808080838
:100C3C000808080808080808080808080808080828
:100C4C000808080808080808080808080808080818
:020C5C00080886
:00000001FF
