:1000000012C02CC02BC02AC029C028C027C026C0BF
:1000100025C024C023C022C021C020C01FC01EC0D4
:100020001DC01CC01BC011241FBECFE5D4E0DEBF25
:10003000CDBF10E0A0E6B0E0E2E9F0E002C005903C
:100040000D92A036B107D9F710E0A0E6B0E001C0EC
:100050001D92A036B107E1F713D019C0D1CF10BC63
:1000600080E189B9599A86E880BD88E18AB9089506
:100070005D9BFECF8CB908955F9BFECF8CB1089538
:10008000EEDFBD9AC59AF8DF81E4F2DFFCCFF89489
:02009000FFCFA0
:00000001FF
