:1000000012C02CC02BC02AC029C028C027C026C0BF
:1000100025C024C023C038C077C020C01FC01EC068
:100020001DC01CC01BC011241FBECFE5D4E0DEBF25
:10003000CDBF10E0A0E6B0E0E0E8F1E002C005903E
:100040000D92A036B107D9F710E0A0E6B0E001C0EC
:100050001D92A439B107E1F77ED090C0D1CF909125
:10006000730080917400981769F0809174008F5F1D
:100070008F7180937400E0917400F0E0EB58FF4FB3
:100080008081089580E008951F920F920FB60F921D
:1000900011248F939F93EF93FF9381E080936000EF
:1000A0008CB1E0917300EF5FEF7190917400E917EC
:1000B00031F0E0937300F0E0EB58FF4F8083FF9145
:1000C000EF919F918F910F900FBE0F901F901895F9
:1000D00010BC82E289B9599A80B5866880BD8AB120
:1000E00088698AB90895909161009F5F9F702091FF
:1000F00062009217E1F3E92FF0E0ED59FF4F8083A2
:1001000090936100559A08951F920F920FB60F9227
:1001100011248F939F93EF93FF93909161008091AF
:100120006200981771F0809162008F5F8F708093EA
:100130006200E0916200F0E0ED59FF4F80818CB9E0
:1001400001C05598FF91EF919F918F910F900FBE35
:100150000F901F901895A59AAD9ABADF789481E414
:10016000C2DFC0E2809160008823E1F385B38C2771
:1001700085BB1092600073DFB6DFF4CFF894FFCF39
:00000001FF
