:1000000012C02CC02BC02AC029C028C027C026C0BF
:1000100025C024C023C022C021C020C01FC01EC0D4
:100020001DC01CC01BC011241FBECFE5D4E0DEBF25
:10003000CDBF10E0A0E6B0E0EAE9F0E002C0059034
:100040000D92A036B107D9F710E0A0E6B0E001C0EC
:100050001D92A036B107E1F70BD01DC0D1CF8CE2C5
:1000600087BB83E58DB908958FB9779BFECF08953F
:10007000F6DFC0E001C0C1E08C2FF6DF8FE39DE02A
:10008000A3E081509040A040E1F700C00000CF5FA6
:0A009000C03591F7F0CFF894FFCFD0
:00000001FF
